12:25:19.066204 IP 10.0.2.15.44188 > 192.0.47.59.43: Flags [S], seq 2239453442, win 29200, options [mss 1460,sackOK,TS val 2943013729 ecr 0,nop,wscale 6], length 0
	0x0000:  5254 0012 3502 0800 273e ac31 0800 4500
	0x0010:  003c 7e89 4000 4006 c0e8 0a00 020f c000
	0x0020:  2f3b ac9c 002b 857b 5902 0000 0000 a002
	0x0030:  7210 fb78 0000 0204 05b4 0402 080a af6a
	0x0040:  d361 0000 0000 0103 0306
12:25:19.183009 IP 192.0.47.59.43 > 10.0.2.15.44188: Flags [S.], seq 9920001, ack 2239453443, win 65535, options [mss 1460], length 0
	0x0000:  0800 273e ac31 5254 0012 3502 0800 4500
	0x0010:  002c 485d 0000 4006 3725 c000 2f3b 0a00
	0x0020:  020f 002b ac9c 0097 5e01 857b 5903 6012
	0x0030:  ffff b2ed 0000 0204 05b4 0000
12:25:19.183243 IP 10.0.2.15.44188 > 192.0.47.59.43: Flags [.], ack 1, win 29200, length 0
	0x0000:  5254 0012 3502 0800 273e ac31 0800 4500
	0x0010:  0028 7e8a 4000 4006 c0fb 0a00 020f c000
	0x0020:  2f3b ac9c 002b 857b 5903 0097 5e02 5010
	0x0030:  7210 fb64 0000
12:25:19.183706 IP 10.0.2.15.44188 > 192.0.47.59.43: Flags [P.], seq 1:14, ack 1, win 29200, length 13
	0x0000:  5254 0012 3502 0800 273e ac31 0800 4500
	0x0010:  0035 7e8b 4000 4006 c0ed 0a00 020f c000
	0x0020:  2f3b ac9c 002b 857b 5903 0097 5e02 5018
	0x0030:  7210 fb71 0000 6578 616d 706c 652e 636f
	0x0040:  6d0d 0a
12:25:19.183927 IP 192.0.47.59.43 > 10.0.2.15.44188: Flags [.], ack 14, win 65535, length 0
	0x0000:  0800 273e ac31 5254 0012 3502 0800 4500
	0x0010:  0028 485e 0000 4006 3728 c000 2f3b 0a00
	0x0020:  020f 002b ac9c 0097 5e02 857b 5910 5010
	0x0030:  ffff ca9d 0000 0000 0000 0000
12:25:19.303926 IP 192.0.47.59.43 > 10.0.2.15.44188: Flags [P.], seq 1:234, ack 14, win 65535, length 233
	0x0000:  0800 273e ac31 5254 0012 3502 0800 4500
	0x0010:  0111 485f 0000 4006 363e c000 2f3b 0a00
	0x0020:  020f 002b ac9c 0097 5e02 857b 5910 5018
	0x0030:  ffff 4a0c 0000 2520 4941 4e41 2057 484f
	0x0040:  4953 2073 6572 7665 720a 2520 666f 7220
	0x0050:  6d6f 7265 2069 6e66 6f72 6d61 7469 6f6e
	0x0060:  206f 6e20 4941 4e41 2c20 7669 7369 7420
	0x0070:  6874 7470 3a2f 2f77 7777 2e69 616e 612e
	0x0080:  6f72 670a 2520 5468 6973 2071 7565 7279
	0x0090:  2072 6574 7572 6e65 6420 3120 6f62 6a65
	0x00a0:  6374 0a0a 646f 6d61 696e 3a20 2020 2020
	0x00b0:  2020 4558 414d 504c 452e 434f 4d0a 0a6f
	0x00c0:  7267 616e 6973 6174 696f 6e3a 2049 6e74
	0x00d0:  6572 6e65 7420 4173 7369 676e 6564 204e
	0x00e0:  756d 6265 7273 2041 7574 686f 7269 7479
	0x00f0:  0a0a 6372 6561 7465 643a 2020 2020 2020
	0x0100:  3139 3932 2d30 312d 3031 0a73 6f75 7263
	0x0110:  653a 2020 2020 2020 2049 414e 410a 0a
12:25:19.304440 IP 10.0.2.15.44188 > 192.0.47.59.43: Flags [.], ack 234, win 30016, length 0
	0x0000:  5254 0012 3502 0800 273e ac31 0800 4500
	0x0010:  0028 7e8c 4000 4006 c0f9 0a00 020f c000
	0x0020:  2f3b ac9c 002b 857b 5910 0097 5eeb 5010
	0x0030:  7540 fb64 0000
12:25:19.304752 IP 192.0.47.59.43 > 10.0.2.15.44188: Flags [F.], seq 234, ack 14, win 65535, length 0
	0x0000:  0800 273e ac31 5254 0012 3502 0800 4500
	0x0010:  0028 4860 0000 4006 3726 c000 2f3b 0a00
	0x0020:  020f 002b ac9c 0097 5eeb 857b 5910 5011
	0x0030:  ffff c9b3 0000 0000 0000 0000
12:25:19.346962 IP 10.0.2.15.44188 > 192.0.47.59.43: Flags [.], ack 235, win 30016, length 0
	0x0000:  5254 0012 3502 0800 273e ac31 0800 4500
	0x0010:  0028 7e8d 4000 4006 c0f8 0a00 020f c000
	0x0020:  2f3b ac9c 002b 857b 5910 0097 5eec 5010
	0x0030:  7540 fb64 0000
12:25:19.368018 IP 10.0.2.15.44188 > 192.0.47.59.43: Flags [F.], seq 14, ack 235, win 30016, length 0
	0x0000:  5254 0012 3502 0800 273e ac31 0800 4500
	0x0010:  0028 7e8e 4000 4006 c0f7 0a00 020f c000
	0x0020:  2f3b ac9c 002b 857b 5910 0097 5eec 5011
	0x0030:  7540 fb64 0000
12:25:19.369269 IP 192.0.47.59.43 > 10.0.2.15.44188: Flags [.], ack 15, win 65535, length 0
	0x0000:  0800 273e ac31 5254 0012 3502 0800 4500
	0x0010:  0028 4861 0000 4006 3725 c000 2f3b 0a00
	0x0020:  020f 002b ac9c 0097 5eec 857b 5911 5010
	0x0030:  ffff c9b2 0000 0000 0000 0000
